:100000000C94E0010C9403340C9430340C940802EA
:100010000C9408020C9408020C9408020C94080238
:100020000C9408020C9408020C9408020C94D2065A
:100030000C9408020C9408020C9408020C94080218
:100040000C945D340C9408020C9448060C948406BD
:100050000C9408020C9408020C9408020C940802F8
:100060000C9408020C940802084AD73B3BCE016E60
:1000700084BCBFFDC12F3D6C74319ABD56833DDAFF
:100080003D00C77F11BED9E4BB4C3E916BAAAABE0E
:10009000000000803F05A84CCDB2D44EB93836A937
:1000A000020C50B9918688083CA6AAAA2ABE000074
:1000B00000803F0664EC1B3C04BC163E3BE5B93CAB
:1000C000C93C37C29E5A3D660498083EEA69AAAA0E
:1000D0003E000000803F2020BF0020BF00BF007C0A
:1000E0002020202020202020202020202020202010
:1000F00020202000C8202020202020202020202078
:1001000020C900C8202020202020202020202020BE
:10011000C97C00D820202020202020202020202042
:10012000D97C00C820202020202020202020202032
:10013000C97C00C820202020202020202020202032
:10014000C97C00207265766F006D696E6F706F7389
:1001500064206C6962726570696C6F740020202085
:100160002020BABBBCBDBE7C2020202020CACBCC26
:10017000CDCE7C00626F6F74696E672075703AED4A
:10018000F2F2F2F2F2F2F2F30063616C6962726110
:1001900074657C7C6D6561737572656420616D70DA
:1001A0003A20200063616C6962726174657C7C6DC9
:1001B0006561737572656420616D703A202000631B
:1001C000616C6962726174657C7C6D656173757266
:1001D000656420766F6C743A200062617474657295
:1001E00079207761726E696E672000747870696437
:1001F0002076616C756573006261726F2074656D45
:10020000700074656D706469737020006163746957
:100210007665200070617373697665007561767428
:10022000616C6B2000736574757020736372656513
:100230006E7C7C7C004368617220446F6E650A00AE
:10024000526561647920666F7220466F6E740A0091
:100250005570646174652043686172536574000071
:10026000407A10F35A00A0724E18090010A5D4E885
:100270000000E87648170000E40B54020000CA9A18
:100280003B000000E1F5050000809698000000406A
:10029000420F000000A086010000001027000000AF
:1002A00000E803000000006400000000000A0000F5
:1002B0000000000100000000002C76D888DC674FA9
:1002C0000823DFC1DFAE59E1B1B796E5E3E453C6D9
:1002D0003AE651997696E8E6C28426EB898C9B62D1
:1002E000ED407C6FFCEFBC9C9F40F2BAA56FA5F47B
:1002F00090055A2AF75C936B6CF9676DC11BFCE0A3
:10030000E40D47FEF520E6B500D0ED902E030094F5
:100310003577050080841E080000204E0A0000008A
:10032000C80C333333330F986E12831141EF8D2194
:1003300014893BE65516CFFEE6DB18D1844B381BFB
:10034000F77C1D901DA4BBE424203284725E2281C0
:1003500000C9F124ECA1E53D276E616E00696E666F
:100360000000000000240027002A000000000025F3
:100370000028002B000000000023002600290004B4
:10038000040404040404040202020202020303033C
:100390000303030102040810204080010204081036
:1003A00020010204081020000000070002010000E4
:1003B0000304060000000000000000001908992C4A
:1003C00011241FBECFEFD8E0DEBFCDBF14E0A0E008
:1003D000B1E0E0EEF4E702C005900D92A630B1075F
:1003E000D9F716E0A6E0B4E001C01D92AE3CB1071B
:1003F000E1F713E0C0ECD3E004C02297FE010E94B5
:100400006A3ACC3BD107C9F70E9409360C946E3A80
:100410000C940000283008F027E03327DA01990F08
:10042000311D87FD916000966105710539F43260D8
:100430002E5F3D9330E32A95E1F708959F3F30F01A
:1004400080387105610509F03C5F3C5F3D93913058
:1004500008F08068911DDF93CF931F930F93FF9255
:10046000EF92192F987F9695E92F96959695E90F1B
:10047000FF27E754FD4F99273327EE24FF24A701D8
:10048000E70105900894079428F4360FE71EF81E3C
:10049000491F511D660F771F881F991F0694A1F7EA
:1004A0000590079428F4E70EF81E491F561FC11D3A
:1004B000770F881F991F661F0694A1F70590079470
:1004C00028F4F80E491F561FC71FD11D880F991F0A
:1004D000661F771F0694A1F70590079420F4490F33
:1004E000561FC71FD81F990F661F771F881F0694B6
:1004F000A9F784911095177041F0D695C795579537
:100500004795F794E7941A95C1F7EFE5F2E0689400
:100510001590159135916591959105907FE27395B0
:10052000E118F10A430B560BC90BD009C0F7E10CD7
:10053000F11E431F561FC91FD01D7EF4703311F4E6
:100540008A95E6CFE894015030F0080F0AF40027AE
:10055000021708F4202F2395022F7A3328F079E32D
:100560007D932A95E9F710C07D932A9589F6069424
:1005700097956795379517951794E118F10A430BEE
:10058000560BC90BD00998F023957E9173957A3359
:1005900008F070E37C932013B8F77E9170617D932F
:1005A00030F0839571E37D9370E32A95E1F7112490
:1005B000EF90FF900F911F91CF91DF91992787FDC9
:1005C00090950895FA01AA27283051F1203181F140
:1005D000E8946F936E7F6E5F7F4F8F4F9F4FAF4F4B
:1005E000B1E03ED0B4E03CD0670F781F891F9A1F5E
:1005F000A11D680F791F8A1F911DA11D6A0F711D12
:10060000811D911DA11D20D009F468943F912AE01D
:10061000269F11243019305D3193DEF6CF01089505
:10062000462F4770405D4193B3E00FD0C9F7F6CF36
:10063000462F4F70405D4A3318F0495D31FD4052FE
:10064000419302D0A9F7EACFB4E0A6959795879594
:1006500077956795BA95C9F7009761057105089573
:100660009B01AC010A2E069457954795379527951F
:10067000BA95C9F7620F731F841F951FA01D0895B7
:10068000CF93DF93BC018230910510F462E070E0FB
:10069000A091CC06B091CD06ED01E0E0F0E040E0A5
:1006A00050E021C0888199818617970769F48A8173
:1006B0009B81309719F09383828304C09093CD0679
:1006C0008093CC06FE0134C06817790738F44115D1
:1006D000510519F08417950708F4AC01FE018A81D1
:1006E0009B819C01E9012097E9F641155105A9F18B
:1006F000CA01861B970B049708F4BA01E0E0F0E00A
:100700002AC08D919C91119784179507F9F464176D
:10071000750781F412968D919C911397309719F07B
:100720009383828304C09093CD068093CC06FD0111
:1007300032964CC0CA01861B970BFD01E80FF91FCA
:100740006193719302978D939C9340C0FD018281C8
:1007500093819C01D9011097A1F68091CA069091CE
:10076000CB06892B41F48091A5029091A60290932B
:10077000CB068093CA064091A7025091A80241156A
:10078000510541F44DB75EB78091A3029091A40248
:10079000481B590B2091CA063091CB06CA01821B17
:1007A000930B8617970780F0AB014E5F5F4F84175E
:1007B000950750F0420F531F5093CB064093CA0643
:1007C000F9016193719302C0E0E0F0E0CF01DF91A5
:1007D000CF910895CF93DF93009709F450C0EC01B7
:1007E00022971B821A82A091CC06B091CD06109759
:1007F00009F140E050E0AC17BD0708F1BB83AA83C4
:10080000FE0121913191E20FF31FAE17BF0779F47A
:100810008D919C911197280F391F2E5F3F4F39837F
:10082000288312968D919C9113979B838A834115FF
:10083000510571F4D093CD06C093CC0620C012961A
:100840008D919C911397AD01009711F0DC01D3CFEE
:10085000FA01D383C28321913191E20FF31FCE17A6
:10086000DF0769F488819981280F391F2E5F3F4F78
:10087000FA01318320838A819B8193838283DF9174
:10088000CF910895FC010590615070400110D8F798
:10089000809590958E0F9F1F0895FC0161507040C8
:1008A00001900110D8F7809590958E0F9F1F0895A5
:1008B000FC011382128288EE93E0A0E0B0E0848312
:1008C0009583A683B7838CEB92E091838083089510
:1008D000FC018089803419F421E030E002C020E07E
:1008E00030E0C9010895FC01818990E00895FC0180
:1008F0006487458766874787089580E090E008957C
:1009000080E090E0089580E090E008950895EF92EF
:10091000FF921F93CF93DF93162F7A0186E060E05A
:100920000E94B53588EA96E060E00E947D2C88EA56
:1009300096E060E00E947D2C88EA96E069E00E94E3
:100940007D2C88EA96E0612F0E947D2CC0E0D0E0EB
:10095000F701EC0FFD1F108188EA96E06AE00E9423
:100960007D2C88EA96E06C2F0E947D2C88EA96E028
:100970006BE00E947D2C88EA96E0612F0E947D2C1E
:100980002196C633D10521F788EA96E068E00E94F7
:100990007D2C88EA96E060EA0E947D2C88EA96E049
:1009A00060EA0E947D2C85FDF9CF88EA96E060E040
:1009B0000E947D2C88EA96E06CE00E947D2C86E007
:1009C00061E00E94B535DF91CF911F91FF90EF90CC
:1009D00008951F93CF93DF93EC01162F86E060E01C
:1009E0000E94B53588EA96E060E00E947D2C1123D4
:1009F00019F0113059F404C088EA96E0688904C0FF
:100A000068896C6188EA96E00E947D2C86E061E04E
:100A10000E94B535DF91CF911F910895EF92FF921B
:100A20000F931F938EE1489F70011124E60EF11C75
:100A300086E060E00E94B53508EA16E0C80165E08E
:100A40000E947D2CC8016F2D0E947D2CC80166E09C
:100A50000E947D2CC8016E2D0E947D2C1F910F914C
:100A6000FF90EF900895EF92FF920F931F937C01F8
:100A700008EA16E0C80167E00E947D2CC8016FEF0C
:100A80000E947D2C86E061E00E94B535F7018785E4
:100A90008F5F87871F910F91FF90EF900895EF92DE
:100AA000FF920F931F93FC01E7848EE1E89E700193
:100AB00011248685E80EF11C86E060E00E94B535C1
:100AC00008EA16E0C80164E00E947D2CC80163E0DA
:100AD0000E947D2CC80165E00E947D2CC8016F2D0D
:100AE0000E947D2CC80166E00E947D2CC8016E2DFD
:100AF0000E947D2C1F910F91FF90EF9008951F93FE
:100B0000CF93DF93EC01162F6C3731F40E9433053D
:100B1000CE010E944F050AC088EA96E067E00E9475
:100B20007D2C88EA96E0612F0E947D2C81E090E088
:100B3000DF91CF911F9108950F931F9386E060E09E
:100B40000E94B53508EA16E0C80164E00E947D2CD9
:100B5000C80164E00E947D2C86E061E00E94B5350A
:100B60001F910F9108951F93CF93DF93EC01188A83
:100B700016E0198B8AEB96E060E973E00E9463331C
:100B8000813049F480E4888B88E0898B86E060E0DE
:100B90000E94B53502C0188A198B86E060E00E9479
:100BA000B535DF91CF911F9108950F931F93CF9388
:100BB000DF93EC0186E061E00E94763582E060E040
:100BC0000E94763582E061E00E94B535CE010E9438
:100BD000B30586E060E00E94B53588EA96E06CEEE9
:100BE0000E947D2C88EA96E06FEF0E947D2C182FE2
:100BF00088EA96E060E00E947D2C6889626088EA5D
:100C000096E00E947D2C62E370E080E090E00E941C
:100C1000B33488EA96E06CE60E947D2C1F7E88EA59
:100C200096E0612F0E947D2C8889803419F00DE0B8
:100C300010E002C000E110E01092070410920604D8
:100C400017C06091060470910704605F88EA96E01F
:100C50000E947D2C88EA96E069E00E947D2C8091BC
:100C6000060490910704019690930704809306046C
:100C700080910604909107048017910714F3CE0128
:100C800061E00E94E904DF91CF911F910F910895D7
:100C90001F920F920FB60F9211242F933F934F93F1
:100CA0008F939F93EF93FF934091C6002091A906E5
:100CB0003091AA062F5F3F4F8091AD069091AE060E
:100CC000282339238091AB069091AC062817390769
:100CD00079F08091A9069091AA06E091AF06F09173
:100CE000B006E80FF91F40833093AA062093A906A7
:100CF000FF91EF919F918F914F913F912F910F9085
:100D00000FBE0F901F9018951F920F920FB60F9263
:100D100011242F933F938F939F93EF93FF932091F1
:100D2000B3063091B4068091B1069091B2062817AF
:100D30003907E9F08091B3069091B406E091B706C7
:100D4000F091B806E80FF91F80818093C60080916A
:100D5000B3069091B40601962091B5063091B6067F
:100D6000822393239093B4068093B30610C02091FE
:100D7000B1063091B2068091B3069091B40628175F
:100D8000390729F48091C1008F7D8093C100FF91C4
:100D9000EF919F918F913F912F910F900FBE0F90E8
:100DA0001F9018951F920F920FB60F9211248F93D8
:100DB0009F938091CC049091CD04892B51F0809128
:100DC000CE049091CF0401969093CF048093CE04EB
:100DD00009C08091D0049091D10401969093D104E0
:100DE0008093D0049F918F910F900FBE0F901F9012
:100DF0001895CF93DF93482FEB0180912206833023
:100E000009F45DC0843028F48130C1F0823058F597
:100E10000AC0853009F4D2C0853008F4A8C08630F5
:100E200009F0F2C0E9C04C3309F0EEC081E08093D4
:100E30002206488384EB80932106E6C0842F90E04D
:100E4000E0912106F0E0E827F927E653FD4F2081E5
:100E500020932106887F9070809741F582E08093EF
:100E60002206498329C0242F30E0E0912106F0E0DA
:100E7000E227F327E653FD4F80818093210680917E
:100E800020068F5F80932006823018F43B832A83EC
:100E9000BBC0922F88272A813B81820F931F9B839F
:100EA0008A830A978F3F910521F018F0109222064D
:100EB000ABC083E08093220610922006A5C0E42FE9
:100EC000F0E08091210690E0E827F927E653FD4FF6
:100ED000808180932106609120066F5F60932006D9
:100EE000623089F0633020F4613009F08DC006C0B3
:100EF000633091F0643009F087C022C0842F90E005
:100F0000A0E0B0E018C0242F30E040E050E0542FC3
:100F1000432F322F222707C0242F30E040E050E03B
:100F2000A901332722278C819D81AE81BF81820F49
:100F3000931FA41FB51F8C839D83AE83BF8364C0A2
:100F4000242F30E040E050E0522F4427332722275F
:100F50008C819D81AE81BF81820F931FA41FB51F1D
:100F60008C839D83AE83BF8360932206A5CF242FFD
:100F700030E0E0912106F0E0E227F327E653FD4F51
:100F8000808180932106809120068F5F80932006C8
:100F9000813019F08230C1F503C03987288734C009
:100FA000922F882728853985280F391F3987288768
:100FB0008A819B810A97F1F085E07CCFE42FF0E0F5
:100FC0008091210690E0E827F927E653FD4F8081C4
:100FD00080932106209120062F5F2093200630E089
:100FE000FB01E20FF31F41878A819B810A97281733
:100FF000390750F086E05ECFC75FDE4F4883C950A7
:10100000D14087E08093220680912206873069F4E0
:1010100010922206C75FDE4F909121068881C95049
:10102000D140981711F48A8101C080E0DF91CF91FF
:1010300008958F92AF92CF92EF92FF920F931F93EA
:1010400082E994E060E045EC50E024EC30E000EC14
:1010500010E0B1ECEB2EF12CCC24C394A8E9AA2E1D
:10106000F0E28F2E0E94D32C8FEA94E00E94580465
:101070001092C2041092C3041092C4041092C504CA
:101080001092C6041092C7041092C8041092C904AA
:101090001092CB041092CA041092C1041F910F91B8
:1010A000FF90EF90CF90AF908F900895AF92BF9246
:1010B000CF92DF92EF92FF920F931F93E090A406DE
:1010C000F090A5060091A6061091A7068FE590E086
:1010D000A0E0B0E0E80EF91E0A1F1B1F0E94A53415
:1010E0006E157F058007910708F44EC0A090F704A5
:1010F000B090F804C090F904D090FA04C601B5018C
:1011000020E030E040E85FE30E94D338181694F501
:10111000E0905006F090510600915206109153064F
:101120000E94A5342091A4063091A5064091A60600
:101130005091A706621B730B840B950B0E94A93775
:101140009B01AC01C601B5010E94DE3820E030E011
:101150004AE754E40E9410379B01AC01C801B70173
:101160000E94433660935006709351068093520656
:10117000909353060E94A5346093A4067093A5062D
:101180008093A6069093A7061F910F91FF90EF9072
:10119000DF90CF90BF90AF900895AF92BF92DF9253
:1011A000EF92FF920F931F93CF93DF938C01809167
:1011B000230680FDE4C0F801F08082E994E06F2D01
:1011C0000E94B42DE801C75FDE4FEF2DF0E0E6533B
:1011D000FD4F80818883F801F18082E994E06F2DD2
:1011E0000E94B42DEF2DF0E0888190E0E827F927E8
:1011F000E653FD4F80818883F801F28082E994E014
:101200006F2D0E94B42DEF2DF0E0888190E0E8274B
:10121000F927E653FD4F80818883F801F38082E946
:1012200094E06F2D0E94B42DEF2DF0E0888190E0C6
:10123000E827F927E653FD4F80818883F801F48081
:1012400082E994E06F2D0E94B42DEF2DF0E08881AB
:1012500090E0E827F927E653FD4F80818883F80165
:101260002481358146815781232F342F452F5527DF
:10127000F22E82E994E0622F0E94B42DEF2DF0E06F
:10128000888190E0E827F927E653FD4F8081888325
:10129000F80124813581468157819A0144275527D9
:1012A000F22E82E994E0622F0E94B42DEF2DF0E03F
:1012B000888190E0E827F927E653FD4F80818883F5
:1012C000F8012481358146815781252F3327442712
:1012D0005527F22E82E994E0622F0E94B42DEF2D63
:1012E000F0E0888190E0E827F927E653FD4F808100
:1012F000888382E994E060E00E94B42DE881F0E008
:10130000E653FD4F8081888382E994E060E00E948B
:10131000B42DE881F0E0E653FD4F80818883F80129
:10132000828193810B9718F18AE0A82EB12CA00E30
:10133000B11E750112C0F701D1907F0182E994E0DE
:101340006D2D0E94B42DED2DF0E0888190E0E8270E
:10135000F927E653FD4F808188832E2D2A1930E02E
:10136000F801828193810A972817390720F3075FD4
:101370001E4F82E994E0F80160810E94B42DDF9154
:10138000CF911F910F91FF90EF90DF90BF90AF90A2
:101390000895DF93CF93CDB7DEB7CA50D1400FB6D3
:1013A000F894DEBF0FBECDBF2CE329836A832AE009
:1013B00030E03C832B83FC0184819581A681B78139
:1013C0008D839E83AF83B887CE0101960E94CD089E
:1013D000C65FDE4F0FB6F894DEBF0FBECDBFCF9114
:1013E000DF9108958AEB96E06AE773E00E94633329
:1013F000882331F586E696E6A6E6B0E480932406D7
:1014000090932506A0932606B093270680E090E0EF
:10141000A0E8BFE38093280690932906A0932A06AC
:10142000B0932B0688EE93E090932D0680932C06C4
:1014300081E880932E068DE880932F068DEF25C0DE
:1014400082E598EBAEE0B0E4809324069093250605
:10145000A0932606B093270685E89BEEA1E5B0E4AD
:101460008093280690932906A0932A06B0932B0612
:1014700080EA94E190932D0680932C068BEF809365
:101480002E0686E680932F068AEF80933006089515
:101490001F93CF93DF938AEB96E06CE773E00E9493
:1014A0006333809382068AEB96E06EE773E00E94D6
:1014B0006333809383068AEB96E060E873E00E94D2
:1014C000633380935C068AEB96E06EE873E00E94DB
:1014D000633380937A068AEB96E06AE873E00E94B1
:1014E0006333809378068AEB96E064E873E00E94A9
:1014F0006333809384068AEB96E066E873E00E948B
:101500006333809385068AEB96E06CE873E00E9473
:10151000633380936A068AEB96E062E973E00E9487
:101520006333809386068AEB96E064E973E00E9459
:10153000633380936906C0E0D0E0BE0168567C4FFB
:101540008AEB96E00E946333FE01E55CF94F8083ED
:10155000882321F02196C830D10579F7C55CD94F91
:1015600019828AEB96E064EF73E00E946333182FD0
:101570008AEB96E065EF73E00E946333382F20E03A
:10158000210F311D30935E0620935D068AEB96E0B5
:1015900066EF73E00E946333182F8AEB96E067EFE3
:1015A00073E00E946333382F20E0210F311D309308
:1015B0006206209361068AEB96E068EF73E00E9472
:1015C0006333182F8AEB96E069EF73E00E94633370
:1015D000382F20E0210F311D3093600620935F06E5
:1015E0008AEB96E06BEF73E00E94633380935B06B7
:1015F000DF91CF911F910895BC018AEB96E00E9484
:10160000633308956091E1047091E2048091E304F2
:101610009091E40420E030E040E152E40E94DE38A2
:1016200020E030E044EB53E40E9410370E9441393F
:101630000E9478379B012550304037FF03C09B0143
:10164000215E3F4FA4E4B6E0F901E653FC4F8081F0
:101650008C932F5F3F4F2432310514F020E030E0AF
:10166000119686E0AF34B80779F71C9208952F924F
:101670003F924F925F926F927F928F929F92AF9222
:10168000BF92CF92DF92EF92FF920F931F93CF936F
:10169000DF93182F662E6091D9047091DA048827A1
:1016A00077FD8095982F0E94AB3725E33AEF4EE8FF
:1016B0005CEB0E94DE380E94B23920E030E040EA64
:1016C00050E40E94DE3820E030E040E151E40E9426
:1016D000DE380E9441390E947837712E8EEBC82E79
:1016E0008FEFD82E4B01AA2497FCA094BA2C0FEAB6
:1016F000202E04E0302E6A9410E0412E11E0512E8D
:101700006091D7047091D804882777FD8095982F31
:101710000E94AB3725E33AEF4EE85CE30E94DE38E7
:101720000E94B2397B018C01B601882777FD809534
:10173000982F0E94AB379B01AC01C801B7010E94F2
:10174000DE387B018C01C501B4010E94AB379B01DF
:10175000AC01C801B7010E94433620E030E044E309
:1017600052E40E94433620E030E040E85FE30E940C
:1017700042360E947837FB01CB01019789359105EC
:1017800008F04BC06EEE7FEF0E94043A8B010B5FB6
:101790001F4FEB55F040C801880F991F9C01A3E033
:1017A000220F331FAA95E1F7820F931F8E0F9F1F01
:1017B00062E070E00E94043A882777FD8095982FB8
:1017C0000E94AB370E9441390E947837EB01672BAA
:1017D00011F4C1E0D0E0462D400F8FEA94E0672D70
:1017E0000E940E0500D000D000D0EDB7FEB73196B4
:1017F000ADB7BEB712963C922E9211975382428299
:101800002596D583C4830E94B22C8DB79EB70696C9
:101810000FB6F8949EBF0FBE8DBFACE0B0E0CA0E0D
:10182000DB1E7394BEE4CB16D10409F069CFDF91BF
:10183000CF911F910F91FF90EF90DF90CF90BF90CD
:10184000AF909F908F907F906F905F904F903F9060
:101850002F900895823010F422E002C0282F220F2A
:1018600030E08DB79EB708970FB6F8949EBF0FBEB5
:101870008DBFEDB7FEB731968FEA94E0ADB7BEB736
:1018800012969C938E93119783E091E093838283C9
:1018900022573F4F358324832F5F3F4F3783268363
:1018A0000E94B22C8DB79EB708960FB6F8949EBFD3
:1018B0000FBE8DBF0895CF93DF93AC01E091E90493
:1018C000F091EA042091310630913206C9018C5919
:1018D0009F4F8E179F071CF4EA01219709C02456D9
:1018E0003040E217F30714F0EA0102C0EA01219642
:1018F000842F90E0C817D90729F08AEB96E04C2F87
:101900000E946A33CE01DF91CF9108950F931F9308
:101910000AEB16E0C80163EF73E041E00E946A330E
:10192000C80164EF73E043E10E946A33C80165EFC8
:1019300073E046E00E946A33C80166EF73E040E15D
:101940000E946A33C80167EF73E047E20E946A337E
:10195000C80168EF73E048E80E946A33C80169EF84
:1019600073E043E10E946A331F910F910895CF9273
:10197000DF92EF92FF920F931F93CF93DF937C013F
:101980006B01EA0100D000D00FEA14E0EDB7FEB71A
:10199000128301838FED90E0948383830E94A12CB6
:1019A0000F900F900F900F90CA30D10581F0C43680
:1019B000D10521F0C130D10519F512C000D000D0F9
:1019C000EDB7FEB7128301838DED90E011C000D01A
:1019D00000D0EDB7FEB7128301838AED90E008C016
:1019E00000D000D0EDB7FEB71283018386ED90E002
:1019F000948383830E94A12C0F900F900F900F90DF
:101A00004091E9045091EA04209131063091320668
:101A1000C9018C599F4F841795072CF4C7018C1B63
:101A20009D0BEC0109C0245630404217530714F0B7
:101A3000E70114C0CE0DDF1DCE15DF0579F08AEB6E
:101A400096E0B6014C2F0E946A330894C11CD11C49
:101A50008AEB96E0B6014D2F0E946A33CE01DF91EA
:101A6000CF911F910F91FF90EF90DF90CF9008954D
:101A7000CF92DF92EF92FF920F931F937C01D62EAD
:101A8000C72E0FEA14E0C8016E2D4D2D0E94770479
:101A9000C8010E944F0500D000D0EDB7FEB71283F9
:101AA000018383E391E0948383830E94A12CEDB7AB
:101AB000FEB71283018383E291E0948383830E94C3
:101AC000A12CEDB7FEB71283018383E191E09483EB
:101AD00083830E94A12CEDB7FEB71283018383E0BC
:101AE00091E0948383830E94A12CEDB7FEB712830B
:101AF000018384EF90E0948383830E94A12C0F9054
:101B00000F900F900F90C8010E943305C7010196F6
:101B10006D2D7C2D0E94370B1F910F91FF90EF9040
:101B2000DF90CF900895AF92BF92CF92DF92EF9265
:101B3000FF920F931F93B82EA62E0E94A53428EE75
:101B400033E040E050E00E94173A69017A010FEA61
:101B500014E0C8016B2D4A2D0E947704C8010E9431
:101B60004F058DB79EB70C970FB6F8949EBF0FBE6A
:101B70008DBFEDB7FEB73196ADB7BEB712961C93C9
:101B80000E93119788E091E09383828383EB90E03A
:101B900095838483C6016CE370E00E94043ACB0114
:101BA0006CE370E00E94043A978386838AE390E0B6
:101BB00091878087C6016CE370E00E94043A9387A6
:101BC00082870E94B22C8DB79EB70C960FB6F89400
:101BD0009EBF0FBE8DBFC8010E9433051F910F919C
:101BE000FF90EF90DF90CF90BF90AF900895EF926D
:101BF000FF920F931F93282F462F9FEAE92E94E020
:101C0000F92EC701622F0E947704C7010E944F0579
:101C10008DB79EB70A970FB6F8949EBF0FBE8DBFC3
:101C20000DB71EB70F5F1F4FEDB7FEB7F282E1820F
:101C300084E191E0F801938382836091FF047091C5
:101C400000058091010590910205209128063091B0
:101C5000290640912A0650912B060E94DE38F80191
:101C6000648375838683978380EB90E09187808778
:101C70000E94B22C8DB79EB70A960FB6F8949EBFFD
:101C80000FBE8DBFC7010E9433051F910F91FF90BA
:101C9000EF9008958F929F92AF92BF92CF92DF9272
:101CA000EF92FF920F931F93E82EF62E0FEA14E0A7
:101CB000C8016E2D4F2D0E947704C8010E944F0568
:101CC0008DB79EB70C970FB6F8949EBF0FBE8DBF11
:101CD000EDB7FEB73196ADB7BEB712961C930E9313
:101CE00011974CE1842E41E0942E938282823DEE46
:101CF000A32EB12CB582A48280910805909109058C
:101D0000A0910A05B0910B0586839783A087B187C0
:101D100023EFC22ED12CD386C2860E94B22C8DB75F
:101D20009EB70C960FB6F8949EBF0FBE8DBFC8012C
:101D30000E943305F394C8016E2D4F2D0E94770445
:101D4000C8010E944F05ADB7BEB71C970FB6F894F7
:101D5000BEBF0FBEADBFEDB7FEB7319612961C9356
:101D60000E93119793828282B582A48280910C0592
:101D700090910D05A0910E05B0910F058683978374
:101D8000A087B187D386C2860E94B22C8DB79EB73A
:101D90000C960FB6F8949EBF0FBE8DBFC8010E946F
:101DA0003305F394C8016E2D4F2D0E947704C801AE
:101DB0000E944F05ADB7BEB71C970FB6F894BEBFD3
:101DC0000FBEADBFEDB7FEB7319612961C930E93C2
:101DD000119793828282B582A4828091100590919E
:101DE0001105A0911205B091130586839783A087F2
:101DF000B187D386C2860E94B22C8DB79EB70C964F
:101E00000FB6F8949EBF0FBE8DBFC8010E94330568
:101E10001F910F91FF90EF90DF90CF90BF90AF9008
:101E20009F908F9008950F931F93282F462F0FEAAE
:101E300014E0C801622F0E947704C8010E944F0578
:101E40008DB79EB70A970FB6F8949EBF0FBE8DBF91
:101E5000EDB7FEB73196ADB7BEB712961C930E9391
:101E6000119786E291E09383828389EB90E09583DA
:101E7000848380913306909134069783868382E829
:101E800090E0918780870E94B22C8DB79EB70A960A
:101E90000FB6F8949EBF0FBE8DBFC8010E943305D8
:101EA0001F910F910895EF92FF920F931F93282F88
:101EB000462F5FEAE52E54E0F52EC701622F0E94FF
:101EC0007704C7010E944F058DB79EB70C970FB6D8
:101ED000F8949EBF0FBE8DBF0DB71EB70F5F1F4F8B
:101EE000EDB7FEB7F282E1828EE291E0F8019383D2
:101EF000828384EE90E095838483609135067091AF
:101F00003606882777FD8095982F0E94AB372AE008
:101F100037ED43E25CE30E94DE38F80166837783A5
:101F2000808791878FE890E0938782870E94B22C08
:101F30008DB79EB70C960FB6F8949EBF0FBE8DBF9F
:101F4000C7010E9433051F910F91FF90EF900895F4
:101F50000F931F93282F462F0FEA14E0C801622F1A
:101F60000E947704C8010E944F058DB79EB70C9759
:101F70000FB6F8949EBF0FBE8DBFEDB7FEB731967A
:101F8000ADB7BEB712961C930E9311978EE291E0F7
:101F90009383828382EE90E09583848380913706D9
:101FA00090913806A0913906B0913A0686839783BE
:101FB000A087B1878EE890E0938782870E94B22C39
:101FC0008DB79EB70C960FB6F8949EBF0FBE8DBF0F
:101FD000C8010E9433051F910F9108950F931F931D
:101FE000282F462F8FEA94E0622F0E9477048FEA11
:101FF00094E00E944F058091E604882319F428E3B9
:1020000031E057C0813019F42CE331E052C0823006
:1020100019F420E431E04DC0833019F424E431E0B8
:1020200048C0843019F428E431E043C0853019F405
:102030002CE431E03EC0863019F420E531E039C0AF
:10204000873019F424E531E034C0883019F428E5EC
:1020500031E02FC0893019F42CE531E02AC08A30F4
:1020600019F420E631E025C08B3019F424E631E084
:1020700020C08C3019F428E631E01BC08D3019F4F3
:102080002CE631E016C08E3019F420E731E011C0A3
:102090008F3019F424E731E00CC0803119F428E7BF
:1020A00031E007C0813119F02CE731E002C02DE7A3
:1020B00031E08DB79EB708970FB6F8949EBF0FBE5C
:1020C0008DBFEDB7FEB731960FEA14E0ADB7BEB7DE
:1020D00012961C930E93119781E891E0938382836B
:1020E00080EE90E095838483378326830E94B22C10
:1020F0008DB79EB708960FB6F8949EBF0FBE8DBFE2
:10210000C8010E9433051F910F9108950F931F93EB
:10211000282F462F0FEA14E0C801622F0E9477048F
:10212000C8010E944F058DB79EB70A970FB6F89465
:102130009EBF0FBE8DBFEDB7FEB73196ADB7BEB730
:1021400012961C930E93119786E891E093838283F5
:1021500087E890E0958384838091E7049091E80478
:102160009783868385E290E0918780870E94B22CD6
:102170008DB79EB70A960FB6F8949EBF0FBE8DBF5F
:10218000C8010E9433051F910F9108950F931F936B
:10219000282F462F0FEA14E0C801622F0E9477040F
:1021A000C8010E944F058DB79EB70A970FB6F894E5
:1021B0009EBF0FBE8DBFEDB7FEB73196ADB7BEB7B0
:1021C00012961C930E93119780E991E0938382837A
:1021D0008091D9049091DA049583848380EB90E018
:1021E0009783868381EB90E0918780870E94B22C51
:1021F0008DB79EB70A960FB6F8949EBF0FBE8DBFDF
:10220000C8010E9433051F910F9108950F931F93EA
:10221000282F462F0FEA14E0C801622F0E9477048E
:10222000C8010E944F058DB79EB70A970FB6F89464
:102230009EBF0FBE8DBFEDB7FEB73196ADB7BEB72F
:1022400012961C930E93119780E991E093838283F9
:102250008091D7049091D8049583848380EB90E09B
:102260009783868382EB90E0918780870E94B22CCF
:102270008DB79EB70A960FB6F8949EBF0FBE8DBF5E
:10228000C8010E9433051F910F9108950F931F936A
:10229000282F462F0FEA14E0C801622F0E9477040E
:1022A000C8010E944F0500D000D000D0EDB7FEB7A6
:1022B0003196ADB7BEB712961C930E93119788E96D
:1022C00091E0938382838BE396E0958384830E94DD
:1022D000B22C8DB79EB706960FB6F8949EBF0FBE70
:1022E0008DBFC8010E9433051F910F9108950F9370
:1022F0001F93282F462F0FEA14E0C801622F0E9477
:102300007704C8010E944F058DB79EB70A970FB694
:10231000F8949EBF0FBE8DBFEDB7FEB73196ADB737
:10232000BEB712961C930E9311978BE991E093839D
:10233000828381EE90E0958384838DE99FEF97837C
:10234000868385E290E0918780870E94B22C8DB7CA
:102350009EB70A960FB6F8949EBF0FBE8DBFC801F8
:102360000E9433051F910F9108950F931F93282FFB
:10237000462F0FEA14E0C801622F0E947704C801BB
:102380000E944F058DB79EB70C970FB6F8949EBF6D
:102390000FBE8DBFEDB7FEB73196ADB7BEB7129683
:1023A0001C930E93119783EA91E0938382838DEAC5
:1023B00091E09583848380ED90E09783868384E425
:1023C00096E09187808781ED90E0938782870E94D5
:1023D000B22C8DB79EB70C960FB6F8949EBF0FBE69
:1023E0008DBFC8010E9433051F910F9108950F936F
:1023F0001F93282F462F0FEA14E0C801622F0E9476
:102400007704C8010E944F058DB79EB70A970FB693
:10241000F8949EBF0FBE8DBFEDB7FEB73196ADB736
:10242000BEB712961C930E9311978BEB91E093839A
:1024300082838091E1049091E204A091E304B09141
:10244000E40484839583A683B78380EB90E091872F
:1024500080870E94B22C8DB79EB70A960FB6F8946B
:102460009EBF0FBE8DBFC8010E9433051F910F9103
:1024700008950F931F93282F462F0FEA14E0C801E9
:10248000622F0E947704C8010E944F058DB79EB746
:102490000C970FB6F8949EBF0FBE8DBFEDB7FEB779
:1024A0003196ADB7BEB712961C930E93119783EC7D
:1024B00091E09383828386E190E095838483809189
:1024C000FB049091FC04A091FD04B091FE0486836E
:1024D0009783A087B18788E890E0938782870E94DE
:1024E000B22C8DB79EB70C960FB6F8949EBF0FBE58
:1024F0008DBFC8010E9433051F910F910895CF929F
:10250000DF92EF92FF920F931F93CF93DF93282FC9
:10251000462FCFEAD4E0CE01622F0E947704CE018D
:102520000E944F05609150067091510680915206AD
:1025300090915306209128063091290640912A0651
:1025400050912B060E94DE386B017C0120E030E0C8
:102550004AE754E40E94D3381816D4F58DB79EB7D5
:102560000C970FB6F8949EBF0FBE8DBF0DB71EB768
:102570000F5F1F4FADB7BEB71296DC93CE93119786
:102580008EE291E0F801938382838EEF90E0958351
:10259000848360912C0670912D06882777FD8095A5
:1025A000982F0E94AB379B01AC01C701B6010E9476
:1025B0001037D80116966D937D938D939C93199740
:1025C000809130061A968C931A971B961C9221C004
:1025D0008DB79EB70C970FB6F8949EBF0FBE8DBFF8
:1025E000EDB7FEB73196ADB7BEB71296DC93CE937A
:1025F00011978DEC91E0938382838EEF90E0958329
:102600008483C682D782E086F18680912F068287F6
:1026100013860E94B22CEDB7FEB73C960FB6F89425
:10262000FEBF0FBEEDBF8FEA94E00E943305DF913D
:10263000CF911F910F91FF90EF90DF90CF90089571
:10264000EF92FF920F931F93282F462F6FEAE62EEB
:1026500064E0F62EC701622F0E947704C7010E9432
:102660004F058DB79EB70C970FB6F8949EBF0FBE5F
:102670008DBF0DB71EB70F5F1F4FEDB7FEB7F282CC
:10268000E18283EC91E0F8019383828389EE90E00C
:10269000958384836091F7047091F8048091F90424
:1026A0009091FA0420912406309125064091260647
:1026B000509127060E94DE38F80166837783808771
:1026C000918780912E06828713860E94B22C8DB747
:1026D0009EB70C960FB6F8949EBF0FBE8DBFC70174
:1026E0000E9433051F910F91FF90EF900895EF9294
:1026F000FF920F931F93282F462F7FEAE72E74E057
:10270000F72EC701622F0E947704C7010E944F0570
:102710008DB79EB70C970FB6F8949EBF0FBE8DBFB6
:102720000DB71EB70F5F1F4FEDB7FEB7F282E18204
:102730008DEC91E0F8019383828386EE90E095839F
:1027400084836091F3047091F4048091F504909176
:10275000F604209128063091290640912A065091CE
:102760002B060E94DE38F801668377838087918785
:1027700080912F06828713860E94B22C8DB79EB758
:102780000C960FB6F8949EBF0FBE8DBFC7010E9476
:1027900033051F910F91FF90EF900895EF92FF92F4
:1027A0000F931F93282F462FEFEAEE2EE4E0FE2E24
:1027B000C701622F0E947704C7010E944F058DB7A1
:1027C0009EB70C970FB6F8949EBF0FBE8DBF0DB786
:1027D0001EB70F5F1F4FEDB7FEB7F282E1828DEC9F
:1027E00091E0F8019383828387EE90E09583848360
:1027F0006091030570910405882777FD8095982FD7
:102800000E94AB37209128063091290640912A0674
:1028100050912B060E94DE38F8016683778380870B
:10282000918780912F06828713860E94B22C8DB7E4
:102830009EB70C960FB6F8949EBF0FBE8DBFC70112
:102840000E9433051F910F91FF90EF9008950F9311
:102850001F93282F462F0FEA14E0C801622F0E9411
:102860007704C8010E944F05809154060E942A0CEB
:10287000C8010E9433051F910F910895EF92FF92B6
:102880000F931F93282F462FFFEAEF2EF4E0FF2E21
:10289000C701622F0E947704C7010E944F058DB7C0
:1028A0009EB70C970FB6F8949EBF0FBE8DBF0DB7A5
:1028B0001EB70F5F1F4FEDB7FEB7F282E1828DECBE
:1028C00091E0F801938382838FE190E09583848384
:1028D0006091550670915606809157069091580662
:1028E0000E94AB37209128063091290640912A0694
:1028F00050912B060E94DE38F8016683778380872B
:10290000918780912F06828713860E94B22C8DB703
:102910009EB70C960FB6F8949EBF0FBE8DBFC70131
:102920000E9433051F910F91FF90EF9008950F9330
:102930001F93282F462F0FEA14E0C801622F0E9430
:102940007704C8010E944F058DB79EB740970FB618
:10295000F8949EBF0FBE8DBFEDB7FEB73196ADB7F1
:10296000BEB712961C930E93119787ED91E0938357
:10297000828383E890E0958384838091DD04909145
:10298000DE04A091DF04B091E00486839783A087E2
:10299000B18784E890E0938782878091ED049091DD
:1029A000EE04A091EF04B091F00484879587A68788
:1029B000B7870E94B22C8DB79EB740960FB6F89499
:1029C0009EBF0FBE8DBFC8010E9433051F910F919E
:1029D00008950F931F93282F462F8FEA94E0622FBC
:1029E0000E9477048FEA94E00E944F058091F204E0
:1029F000282F30E0823030F4A4E0220F331FAA9554
:102A0000E1F702C02150304000D000D000D0EDB737
:102A1000FEB731960FEA14E0ADB7BEB712961C931D
:102A20000E93119780E091E0938382833583248312
:102A30000E94B22C8DB79EB706960FB6F8949EBF33
:102A40000FBE8DBFC8010E9433051F910F910895DD
:102A50000F931F93282F462F0FEA14E0C801622F0F
:102A60000E947704C8010E944F058DB79EB7089752
:102A70000FB6F8949EBF0FBE8DBFEDB7FEB731966F
:102A8000ADB7BEB712961C930E93119789EE91E0E5
:102A9000938382838FE090E0958384838091F10417
:102AA000868317820E94B22C8DB79EB708960FB608
:102AB000F8949EBF0FBE8DBFC8010E9433051F91C1
:102AC0000F9108950F931F930FEA14E0C80163E07C
:102AD00045E00E947704C8010E944F0500D000D055
:102AE000EDB7FEB7128301838DE591E09483838374
:102AF0000E94A12CEDB7FEB71283018389E491E017
:102B0000948383830E94A12CEDB7FEB712830183C7
:102B100083E491E0948383830E94A12C0F900F9013
:102B20000F900F90C8010E9433051F910F910895D7
:102B30000F931F93282F462F0FEA14E0C801622F2E
:102B40000E947704C8010E944F0500D000D0EDB765
:102B5000FEB71283018384E791E0948383830E940C
:102B6000A12C0F900F900F900F90C8010E94330579
:102B70001F910F910895EF92FF920F931F93CF93A0
:102B8000DF930E94A5342091640630916506409140
:102B9000660650916706261737074807590708F059
:102BA0004FC30E94A5346C507E4F8F4F9F4F609350
:102BB00064067093650680936606909367060FEA35
:102BC00014E0C8010E949C05C80165E043E00E9432
:102BD0007704C8010E944F0500D000D0ADB7BEB742
:102BE00012961C930E93119785E292E014969C9393
:102BF0008E9313970E94A12C0F900F900F900F901F
:102C00008091310690913206892B31F080915906DE
:102C100090915A06892B81F48091E9049091EA04FD
:102C200090933206809331068091EB049091EC04EE
:102C300090935A06809359062091EB043091EC044E
:102C40004091590650915A06C90184569040481740
:102C5000590724F4809163068F5F08C02C593F4FB9
:102C6000241735072CF48091630681508093630606
:102C700080916306181614F081E003C08D301CF0BB
:102C80008CE08093630680916306863009F45AC114
:102C900087308CF4833009F4FAC0843034F4813006
:102CA00079F1823009F0C8C28BC08430E9F08530F8
:102CB00009F0C2C222C0893009F4B7C18A3034F4A5
:102CC000873079F0883009F0B7C214C08B3079F0C2
:102CD0008B3024F08C3009F0AFC22BC2C4E6D0E0B8
:102CE0002FC2C4E6D0E0A8C1C4E6D0E032C184E679
:102CF00090E021C284E690E09AC184E690E024C18D
:102D000000D000D0CFEAD4E0EDB7FEB7D283C183C4
:102D10008CE192E0948383830E94A12C809123060E
:102D20000F900F900F900F9080FF26C000D000D022
:102D3000ADB7BEB71296DC93CE93119784E192E0C3
:102D400014969C938E9313970E94A12C8091310628
:102D500090913206845690400F900F900F900F90F4
:102D60002091E9043091EA04281739070CF064C275
:102D7000809123068E7F21C000D000D0EDB7FEB732
:102D8000D283C1838CE092E0948383830E94A12C40
:102D900080913106909132068C599F4F0F900F9081
:102DA0000F900F902091E9043091EA048217930765
:102DB0000CF042C2809123068160809323063CC2BE
:102DC00000D000D0CFEAD4E0ADB7BEB71296DC9306
:102DD000CE93119782E092E014969C938E93139772
:102DE0000E94A12C0F900F900F900F9080915B0686
:102DF000882301F100D000D0EDB7FEB7D283C183A4
:102E000088EF91E0948383830E94A12C8091310606
:102E100090913206845690400F900F900F900F9033
:102E20002091E9043091EA04281739073CF5109203
:102E30005B0624C000D000D0ADB7BEB71296DC93BD
:102E4000CE9311978BEE91E014969C938E931397EB
:102E50000E94A12C80913106909132068C599F4F8F
:102E60000F900F900F900F902091E9043091EA0499
:102E7000821793071CF481E080935B068AEB96E04F
:102E80006BEF73E040915B060E946A33D5C100D0BE
:102E900000D00FEAE02E04E0F02EEDB7FEB7F2828C
:102EA000E1828AED91E0948383830E94A12C8DB707
:102EB0009EB708970FB6F8949EBF0FBE8DBF0DB793
:102EC0001EB70F5F1F4FADB7BEB71296FC92EE92C2
:102ED00011978FEE91E0F8019383828360915C06F5
:102EE00070E080E090E00E94A93720E030E040E20E
:102EF00051E40E941037D80114966D937D938D9301
:102F00009C93179786E790E019969C938E93189759
:102F100080E290E01B969C938E931A970E94B22CAD
:102F2000EDB7FEB73C960FB6F894FEBF0FBEEDBFEF
:102F300080915C0690E060E873E00E945B0C8093F7
:102F40005C067AC18AE090E06AE070E00E94043A90
:102F5000EB0100D000D00FEA14E0ADB7BEB7129677
:102F60001C930E9311978FEB91E014969C938E9384
:102F700013970E94A12CEDB7FEB738970FB6F894BF
:102F8000FEBF0FBEEDBF3196ADB7BEB712961C9314
:102F90000E9311978EE291E09383828382EE90E00C
:102FA000958384838091370690913806A0913906E5
:102FB000B0913A0686839783A087B1878EE890E028
:102FC000938782870E94B22CEDB7FEB736960FB674
:102FD000F894FEBF0FBEEDBF3196ADB7BEB71296E7
:102FE0001C930E93119787EF91E0938382838091D6
:102FF0005D0690915E06958384830E94B22CEDB7A6
:10300000FEB736960FB6F894FEBF0FBEEDBF8091A7
:103010005D0690915E0664EF73E0AE010E94B70C0E
:1030200090935E0680935D0607C18AE090E06AE0B7
:1030300070E00E94043AEB0100D000D01FEAE12EBC
:1030400014E0F12EADB7BEB71296FC92EE92119736
:1030500084EA91E014969C938E9313970E94A12C7E
:10306000EDB7FEB738970FB6F894FEBF0FBEEDBFB1
:103070000DB71EB70F5F1F4FF282E1828EE291E023
:10308000D80113969C938E93129784EE90E0159638
:103090009C938E931497609135067091360688271D
:1030A00077FD8095982F0E94AB372AE037ED43E2F9
:1030B0005CE30E94DE38F80166837783808791871E
:1030C0008FE890E0938782870E94B22C8DB79EB7DD
:1030D00006960FB6F8949EBF0FBE8DBFEDB7FEB734
:1030E0003196ADB7BEB71296FC92EE9211978EE074
:1030F00092E09383828380915F069091600695832E
:1031000084830E94B22CEDB7FEB736960FB6F894C2
:10311000FEBF0FBEEDBF80915F069091600668EF25
:1031200073E0AE010E94B70C9093600680935F0637
:1031300083C08AE090E06AE070E00E94043AEB010C
:1031400000D000D0BFEAEB2EB4E0FB2EADB7BEB787
:103150001296FC92EE92119789E891E014969C9356
:103160008E9313970E94A12CEDB7FEB738970FB638
:10317000F894FEBF0FBEEDBF0DB71EB70F5F1F4F18
:10318000F282E1828EE291E0D80113969C938E93B5
:10319000129784EE90E015969C938E93149760910D
:1031A000350670913606882777FD8095982F0E9406
:1031B000AB372AE037ED43E25CE30E94DE38F801EA
:1031C00066837783808791878FE890E093878287F3
:1031D0000E94B22C8DB79EB706960FB6F8949EBF8C
:1031E0000FBE8DBFEDB7FEB73196ADB7BEB7129625
:1031F000FC92EE92119785E292E093838283809114
:10320000610690916206958384830E94B22CEDB78B
:10321000FEB736960FB6F894FEBF0FBEEDBF809195
:1032200061069091620666EF73E0AE010E94B70CF2
:1032300090936206809361068FEA94E00E943305C2
:10324000DF91CF911F910F91FF90EF9008952F92F2
:103250003F924F925F926F927F928F929F92AF9226
:10326000BF92CF92DF92EF92FF920F931F93DF9363
:10327000CF9300D000D00F92CDB7DEB78A836B8397
:103280000E94A53420917106309172064091730618
:1032900050917406261737074807590708F02AC1C6
:1032A000809175068823C9F08093B102109275064B
:1032B0008CE392E090937706809376060E94A53483
:1032C0006C507E4F8F4F9F4F6093710670937206C4
:1032D0008093730690937406C8C08091B102482E03
:1032E0005524E090E50400917606109177068091D0
:1032F000D20489832090F2043090680660903706EB
:10330000709038068090390690903A0680915C065D
:1033100090E0F09014055D824C825C01CC24B7FCF7
:10332000C094DC2CAC81BD811196BD83AC83179712
:103330002CF0E1E0F0E0FD83EC8318C08C819D81EE
:103340008330910511F1843091053CF48130910571
:1033500069F0029709F050C011C0AC81BD81A43062
:10336000B105E1F0169709F047C02EC0B1E0BE15D7
:1033700008F442C009E412E081E045C0E981E3308D
:10338000D9F106E512E082E03EC0F1E0F215A0F1CD
:10339000332091F103E612E083E035C0C601B501A8
:1033A0000E94AB3720E030E040E251E40E94103749
:1033B0009B01AC01C401B3010E9409378823E4F4E6
:1033C00000E712E084E01FC081E08E15A8F08F15A1
:1033D00098F493E0F91649F0A4E0FA1651F0B2E03F
:1033E000FB1651F40DE712E002C009E812E086E096
:1033F0000AC006E912E0FBCFEC81FD81E415F5057A
:1034000009F090CF60C01093770600937606809302
:10341000750681E080936B060E94A53468517C4F4D
:103420008F4F9F4F6093710670937206809373065F
:10343000909374060E94A5346056704F8F4F9F4F33
:1034400060936D0670936E0680936F06909370067E
:1034500080916C06882321F08FEA94E00E949C05FD
:1034600010926C0602C010926B060FEA14E0C801BD
:103470006A814B810E947704C8010E944F0500D0E9
:1034800000D000D0EDB7FEB73196ADB7BEB71296FB
:103490001C930E93119788E991E093838283809126
:1034A000760690917706958384830E94B22CEDB7BF
:1034B000FEB736960FB6F894FEBF0FBEEDBFC8013B
:1034C0000E94330517C0109377060093760610927A
:1034D00075060E94A53420916D0630916E064091CC
:1034E0006F0650917006261737074807590708F4EA
:1034F000BACFBBCF0F900F900F900F900F90CF913E
:10350000DF911F910F91FF90EF90DF90CF90BF90D0
:10351000AF909F908F907F906F905F904F903F9073
:103520002F900895EF92FF920F931F93809178064A
:10353000843009F056C09091E604943008F027C119
:10354000809181068917A1F1909381060E94A5348C
:1035500060937D0670937E0680937F06909380062D
:10356000909181068091B202981711F580916C06B6
:10357000813091F0813018F08230B1F413C011E045
:1035800010936C060E94A5346153754780409040AB
:1035900030F41093790608C082E080936C06109294
:1035A000790602C010926C068FEA94E00E949C0596
:1035B0000E94A53420917D0630917E0640917F06C1
:1035C00050918006621B730B840B950B615D7740F5
:1035D0008040904008F4DBC08091E6048093B20202
:1035E000D6C0853029F48091A9029091AA0214C016
:1035F000863029F48091AB029091AC020DC08730E7
:1036000029F48091AD029091AE0206C0883041F459
:103610008091AF029091B00290937C0680937B06DC
:1036200080917A0620917B0630917C06882309F0F0
:103630004AC0C901895097408F5A9440C8F40E94EB
:10364000A534615375478040904020F481E0809319
:1036500079060CC080917906882341F480916B062D
:10366000882321F48FEA94E00E949C0582E028C020
:1036700044E0203B340768F480916C06882349F0CD
:10368000109279068FEA94E00E949C0510926C06D5
:103690007EC0205B34402955324008F078C08091CC
:1036A0006C06813009F473C080916B06882309F0A1
:1036B0006EC0109279068FEA94E00E949C0581E02A
:1036C00080936C0664C0215B344008F460C00E94A3
:1036D000A534615375478040904008F041C0809107
:1036E00079068823E9F5E0907D06F0907E0600914A
:1036F0007F061091800688EE93E0A0E0B0E0E80E2F
:10370000F91E0A1F1B1F0E94A534E616F7060807BC
:103710001907E8F581E08093790617C010927906C1
:103720008FEA94E00E949C0580916C06823019F427
:1037300010926C0603C08F5F80936C0680916C06BC
:10374000823018F082E080936C060E94A53460936A
:103750007D0670937E0680937F069093800617C047
:10376000E0907D06F0907E0600917F061091800625
:1037700088EE93E0A0E0B0E0E80EF91E0A1F1B1FE0
:103780000E94A534E616F7060807190738F21F91BC
:103790000F91FF90EF90089580917806843010F09B
:1037A0000E94921A80917906882319F00E94BB1515
:1037B000089580910E0480FF08C060917404809188
:1037C000720490E070E00E94271980916C068230AC
:1037D00008F012C2A82FB0E0FD01E85FFB4F808126
:1037E00085FF0BC0FD01EC5DFB4F6081AE5DBB4F03
:1037F0008C9190E070E00E94281580916C06A82FB3
:10380000B0E0FD01E85FFB4F808186FF0BC0FD014A
:10381000E85DFB4F6081AA5DBB4F8C9190E070E04A
:103820000E94E91480916806882309F43FC08091C2
:103830006C06A82FB0E0FD01E85FFB4F808187FF99
:103840000BC0FD01E45DFB4F6081A65DBB4F8C9119
:1038500090E070E00E94971480916C06A82FB0E071
:10386000FD01E65FFB4F808184FF0BC0FD01EC5B37
:10387000FB4F6081AE5BBB4F8C9190E070E00E948B
:103880003E1480916C06A82FB0E0FD01E65FFB4F6F
:10389000808183FF0BC0FD01E05CFB4F6081A25C77
:1038A000BB4F8C9190E070E00E94271480916C06D1
:1038B000A82FB0E0FD01E45FFB4F808187FF0BC0C4
:1038C000FD01E45AFB4F6081A65ABB4F8C9190E0FA
:1038D00070E00E94CE1380916C06A82FB0E0FD012D
:1038E000E25FFB4F808183FF0BC0FD01E458FB4F7B
:1038F0006081A658BB4F8C9190E070E00E94391215
:1039000080916806882309F46EC08091F2048230A9
:1039100008F469C080916C06A82FB0E0FD01E05F5B
:10392000FB4F808182FF0BC0FD01E457FB4F60819C
:10393000A657BB4F8C9190E070E00E947F1280915F
:103940006C06A82FB0E0FD01E45FFB4F808182FF91
:103950000BC0FD01E85AFB4F6081AA5ABB4F8C9106
:1039600090E070E00E94771380916C06A82FB0E081
:10397000FD01E45FFB4F808183FF0BC0FD01E05A36
:10398000FB4F6081A25ABB4F8C9190E070E00E9487
:10399000201380916C06A82FB0E0FD01E65FFB4F7D
:1039A000808181FF0BC0FD01E85CFB4F6081AA5C58
:1039B000BB4F8C9190E070E00E94F71180916C06F3
:1039C000A82FB0E0FD01E65FFB4F808180FF0BC0B8
:1039D000FD01EC5CFB4F6081AE5CBB4F8C9190E0D5
:1039E00070E00E94B51180916C06A82FB0E0FD0137
:1039F000E25FFB4F808186FF0BC0FD01E857FB4F64
:103A00006081AA57BB4F8C9190E070E00E947711C3
:103A100080916C06A82FB0E0FD01E25FFB4F808132
:103A200085FF0BC0FD01EC57FB4F6081AE57BB4FCC
:103A30008C9190E070E00E94461180916C06A82F56
:103A4000B0E0FD01E85FFB4F808182FF0BC0FD010C
:103A5000E45EFB4F6081A65EBB4F8C9190E070E00E
:103A60000E94061180916C06A82FB0E0FD01E85F6E
:103A7000FB4F808181FF0BC0FD01E85EFB4F608141
:103A8000AA5EBB4F8C9190E070E00E94C6108091BE
:103A90006C06A82FB0E0FD01E45FFB4F808184FF3E
:103AA0000BC0FD01E859FB4F6081AA59BB4F8C91B7
:103AB00090E070E00E94861080916C06A82FB0E024
:103AC000FD01E45FFB4F808185FF0BC0FD01E459E0
:103AD000FB4F6081A659BB4F8C9190E070E00E9433
:103AE000EE0F80916C06A82FB0E0FD01E85FFB4F60
:103AF000808183FF0BC0FD01E05EFB4F6081A25E11
:103B0000BB4F8C9190E070E00E94A80F80916C06F2
:103B1000A82FB0E0FD01E45FFB4F808180FF0BC068
:103B2000FD01EC5AFB4F6081AE5ABB4F8C9190E087
:103B300070E00E94530F80916C06A82FB0E0FD0149
:103B4000E85FFB4F808184FF0BC0FD01E05DFB4F10
:103B50006081A25DBB4F8C9190E070E00E94130FDA
:103B600080916C06A82FB0E0FD01E05FFB4F8081E3
:103B700081FF18C080915B06FD01E257FB4F813049
:103B800049F4A057BB4F6C91808190E070E00E9497
:103B9000F70D08C0A057BB4F6C91808190E070E09A
:103BA0000E944A0E80916C06A82FB0E0FD01E65FEE
:103BB000FB4F808187FF0BC0FD01E05BFB4F608105
:103BC000A25BBB4F8C9190E070E00E94930D8091BE
:103BD0006C06A82FB0E0FD01E45FFB4F808186FFFB
:103BE0000BC0FD01E059FB4F6081A259BB4F8C9186
:103BF00090E070E00E94380D08958FEA94E00E94F2
:103C00009C050E9462150E94F2090895CF93DF93EC
:103C1000EC018FEA94E00E947304C817D9073CF0C6
:103C20008FEA94E00E946804892B09F42397CE015F
:103C3000DF91CF910895EF92FF920F931F93CF934F
:103C4000DF9300916C0610E08AEF90E0089F70010E
:103C5000099FF00C189FF00C1124C7010E94FC0A68
:103C6000F801E85FFB4F882319F08081816002C072
:103C700080818E7F808380916C06C82FD0E0C70141
:103C800002960E94FC0ACE5EDB4F888380916C0610
:103C9000C82FD0E0C70104960E94FC0A90E00E9461
:103CA000061ECC5EDB4F888300916C0610E0C701D6
:103CB00088569F4F0E94FC0AF801E85FFB4F88235B
:103CC00019F08081806102C080818F7E8083809125
:103CD0006C06C82FD0E0C70186569F4F0E94FC0A91
:103CE000C25DDB4F888380916C06C82FD0E0C7018E
:103CF00084569F4F0E94FC0A90E00E94061EC05D01
:103D0000DB4F888300916C0610E0C70106960E9485
:103D1000FC0AF801E85FFB4F882319F0808182607C
:103D200002C080818D7F808380916C06C82FD0E097
:103D3000C70108960E94FC0ACA5EDB4F8883809107
:103D40006C06C82FD0E0C7010A960E94FC0A90E0DA
:103D50000E94061EC85EDB4F888300916C0610E04F
:103D6000C7010C960E94FC0AF801E85FFB4F88230C
:103D700019F08081846002C080818B7F8083809174
:103D80006C06C82FD0E0C7010E960E94FC0AC65EE2
:103D9000DB4F888380916C06C82FD0E0C701409626
:103DA0000E94FC0A90E00E94061EC45EDB4F8883DE
:103DB00000916C0610E0C70142960E94FC0AF801CF
:103DC000E85FFB4F882319F08081886002C0808102
:103DD000877F808380916C06C82FD0E0C70144960E
:103DE0000E94FC0AC25EDB4F888380916C06C82F5C
:103DF000D0E0C70146960E94FC0A90E00E94061E91
:103E0000C05EDB4F888300916C0610E0C7014E96C0
:103E10000E94FC0AF801E85FFB4F882319F08081BB
:103E2000806202C080818F7D808380916C06C82F64
:103E3000D0E0C70180960E94FC0ACE5DDB4F8883EC
:103E400080916C06C82FD0E0C70182960E94FC0AC0
:103E500090E00E94061ECC5DDB4F888300916C06CB
:103E600010E0C70184960E94FC0AF801E85FFB4F4E
:103E7000882319F08081806402C080818F7B8083D9
:103E800080916C06C82FD0E0C70186960E94FC0A7C
:103E9000CA5DDB4F888380916C06C82FD0E0C701D4
:103EA00088960E94FC0A90E00E94061EC85DDB4FC7
:103EB000888300916C0610E0C7018A960E94FC0A74
:103EC000F801E85FFB4F882319F08081806802C009
:103ED00080818F77808380916C06C82FD0E0C701E6
:103EE0008C960E94FC0AC65DDB4F888380916C062D
:103EF000C82FD0E0C7018E960E94FC0A90E00E9475
:103F0000061EC45DDB4F888300916C0610E0C7017C
:103F1000C0960E94FC0AF801E65FFB4F882319F067
:103F20008081816002C080818E7F808380916C0659
:103F3000C82FD0E0C701C2960E94FC0ACE5CDB4FBE
:103F4000888380916C06C82FD0E0C701C4960E9478
:103F5000FC0A90E00E94061ECC5CDB4F8883009137
:103F60006C0610E0C701C6960E94FC0AF801E65FE5
:103F7000FB4F882319F08081826002C080818D7F91
:103F8000808380916C06C82FD0E0C701C8960E943C
:103F9000FC0ACA5CDB4F888380916C06C82FD0E096
:103FA000C701CA960E94FC0A90E00E94061EC85CE7
:103FB000DB4F888300916C0610E0C701CC960E940D
:103FC000FC0AF801E65FFB4F882319F080818460CA
:103FD00002C080818B7F808380916C06C82FD0E0E7
:103FE000C701CE960E94FC0AC65CDB4F8883809195
:103FF0006C06C82FD0E0C701805C9F4F0E94FC0A6E
:1040000090E00E94061EC45CDB4F888300916C0622
:1040100010E0C701885B9F4F0E94FC0AF801E65F31
:10402000FB4F882319F08081806102C080818F7EE0
:10403000808380916C06C82FD0E0C701865B9F4FBC
:104040000E94FC0ACE5BDB4F888380916C06C82FF0
:10405000D0E0C701845B9F4F0E94FC0A90E00E9461
:10406000061ECC5BDB4F888300916C0610E0C70115
:104070008E5B9F4F0E94FC0AF801E65FFB4F88238E
:1040800019F08081886002C08081877F8083809161
:104090006C06C82FD0E0C7018C5B9F4F0E94FC0AC2
:1040A000C25CDB4F888380916C06C82FD0E0C701CB
:1040B0008A5B9F4F0E94FC0A90E00E94061EC05C33
:1040C000DB4F888300916C0610E0C701805B9F4F37
:1040D0000E94FC0AF801E65FFB4F882319F08081FB
:1040E000806202C080818F7D808380916C06C82FA2
:1040F000D0E0C7018E5A9F4F0E94FC0ACA5BDB4F7B
:10410000888380916C06C82FD0E0C7018C5A9F4FDE
:104110000E94FC0A90E00E94061EC85BDB4F888369
:1041200000916C0610E0C7018A5A9F4F0E94FC0A5A
:10413000F801E65FFB4F882319F08081806402C09C
:1041400080818F7B808380916C06C82FD0E0C7016F
:10415000885A9F4F0E94FC0AC65BDB4F8883809180
:104160006C06C82FD0E0C701865A9F4F0E94FC0AF8
:1041700090E00E94061EC45BDB4F888300916C06B2
:1041800010E0C70182569F4F0E94FC0AF801E65FCB
:10419000FB4F882319F08081806802C080818F776F
:1041A000808380916C06C82FD0E0C70180569F4F56
:1041B0000E94FC0AC25BDB4F888380916C06C82F8B
:1041C000D0E0C7018E559F4F0E94FC0A90E00E94EC
:1041D000061EC05BDB4F888300916C0610E0C701B0
:1041E0008E599F4F0E94FC0AF801E45FFB4F882321
:1041F00019F08081816002C080818E7F80838091F0
:104200006C06C82FD0E0C7018C599F4F0E94FC0A52
:10421000CE5ADB4F888380916C06C82FD0E0C7014F
:104220008A599F4F0E94FC0A90E00E94061ECC5AB9
:10423000DB4F888300916C0610E0C70182599F4FC5
:104240000E94FC0AF801E45FFB4F882319F080818B
:10425000846002C080818B7F808380916C06C82F30
:10426000D0E0C70180599F4F0E94FC0ACA5ADB4F19
:10427000888380916C06C82FD0E0C7018E589F4F6D
:104280000E94FC0A90E00E94061EC85ADB4F8883F9
:1042900000916C0610E0C70184579F4F0E94FC0AF2
:1042A000F801E45FFB4F882319F08081806802C029
:1042B00080818F77808380916C06C82FD0E0C70102
:1042C00082579F4F0E94FC0AC65ADB4F8883809119
:1042D0006C06C82FD0E0C70180579F4F0E94FC0A90
:1042E00090E00E94061EC45ADB4F888300916C0642
:1042F00010E0C7018E569F4F0E94FC0AF801E45F50
:10430000FB4F882319F08081826002C080818D7FFD
:10431000808380916C06C82FD0E0C7018C569F4FD8
:104320000E94FC0ACE59DB4F888380916C06C82F0F
:10433000D0E0C7018A569F4F0E94FC0A90E00E947D
:10434000061ECC59DB4F888300916C0610E0C70134
:104350008C589F4F0E94FC0AF801E45FFB4F8823B2
:1043600019F08081886002C08081877F808380917E
:104370006C06C82FD0E0C7018A589F4F0E94FC0AE4
:10438000C25ADB4F888380916C06C82FD0E0C701EA
:1043900088589F4F0E94FC0A90E00E94061EC05A57
:1043A000DB4F888300916C0610E0C70186589F4F51
:1043B0000E94FC0AF801E45FFB4F882319F080811A
:1043C000806102C080818F7E808380916C06C82FBF
:1043D000D0E0C70184589F4F0E94FC0ACA59DB4FA6
:1043E000888380916C06C82FD0E0C70182589F4F08
:1043F0000E94FC0A90E00E94061EC859DB4F888389
:1044000000916C0610E0C70180589F4F0E94FC0A83
:10441000F801E45FFB4F882319F08081806202C0BD
:1044200080818F7D808380916C06C82FD0E0C7018A
:104430008E579F4F0E94FC0AC659DB4F888380919C
:104440006C06C82FD0E0C7018C579F4F0E94FC0A12
:1044500090E00E94061EC459DB4F888300916C06D1
:1044600010E0C7018A579F4F0E94FC0AF801E45FE1
:10447000FB4F882319F08081806402C080818F7B8C
:10448000808380916C06C82FD0E0C70188579F4F6A
:104490000E94FC0AC259DB4F888380916C06C82FAA
:1044A000D0E0C70186579F4F0E94FC0A90E00E940F
:1044B000061EC059DB4F888300916C0610E0C701CF
:1044C0008C559F4F0E94FC0AF801E25FFB4F882346
:1044D00019F08081816002C080818E7F808380910D
:1044E0006C06C82FD0E0C7018A559F4F0E94FC0A76
:1044F000CE58DB4F888380916C06C82FD0E0C7016F
:1045000088559F4F0E94FC0A90E00E94061ECC58DE
:10451000DB4F888300916C0610E0C70180559F4FE8
:104520000E94FC0AF801E25FFB4F882319F08081AA
:10453000846002C080818B7F808380916C06C82F4D
:10454000D0E0C7018E549F4F0E94FC0ACA58DB4F2F
:10455000888380916C06C82FD0E0C7018C549F4F90
:104560000E94FC0A90E00E94061EC858DB4F888318
:1045700000916C0610E0C7018A549F4F0E94FC0A0C
:10458000F801E25FFB4F882319F08081886002C048
:104590008081877F808380916C06C82FD0E0C7011F
:1045A00088549F4F0E94FC0AC658DB4F8883809135
:1045B0006C06C82FD0E0C70186549F4F0E94FC0AAA
:1045C00090E00E94061EC458DB4F888300916C0661
:1045D00010E0C70184549F4F0E94FC0AF801E25F7B
:1045E000FB4F882319F08081806102C080818F7E1B
:1045F000808380916C06C82FD0E0C70182549F4F02
:104600000E94FC0AC258DB4F888380916C06C82F39
:10461000D0E0C70180549F4F0E94FC0A90E00E94A6
:10462000061EC058DB4F888300916C0610E0C7015E
:10463000845A9F4F0E94FC0AF801E25FFB4F8823D7
:1046400019F08081806402C080818F7B808380919B
:104650006C06C82FD0E0C701825A9F4F0E94FC0A07
:10466000CA57DB4F888380916C06C82FD0E0C70102
:10467000805A9F4F0E94FC0A90E00E94061EC85775
:10468000DB4F888300916C0610E0C70188539F4F71
:104690000E94FC0AF801E25FFB4F882319F0808139
:1046A000806202C080818F7D808380916C06C82FDC
:1046B000D0E0C70186539F4F0E94FC0ACE57DB4FC4
:1046C000888380916C06C82FD0E0C70184539F4F28
:1046D0000E94FC0A90E00E94061ECC57DB4F8883A4
:1046E00000916C0610E0C70180529F4F0E94FC0AA7
:1046F000F801E05FFB4F882319F08081846002C0DD
:1047000080818B7F808380916C06C82FD0E0C701A9
:104710008E519F4F0E94FC0AC657DB4F88838091C1
:104720006C06C82FD0E0C7018C519F4F0E94FC0A35
:1047300090E00E94061EC457DB4F888300916C06F0
:1047400010E0C7018C529F4F0E94FC0AF801E05F05
:10475000FB4F882319F08081826002C080818D7FA9
:10476000808380916C06C82FD0E0C7018A529F4F8A
:104770000E94FC0AC257DB4F888380916C06C82FC9
:10478000D0E0C70188529F4F0E94FC0A90E00E942F
:10479000061EC057DB4F8883DF91CF911F910F9189
:1047A000FF90EF9008954F925F927F928F929F9229
:1047B000AF92BF92CF92DF92EF92FF920F931F932F
:1047C000DF93CF93CDB7DEB7C854D0400FB6F8947F
:1047D000DEBF0FBECDBF0FEA14E0C8010E949C05EA
:1047E000C80166E049E00E947704C8010E944F05B5
:1047F00000D000D0EDB7FEB71283018380E592E0D0
:10480000948383830E94A12C0F900F900F900F90A0
:10481000C8010E94330500D000D002E914E0EDB7D2
:10482000FEB71283018380E492E0948383830E9425
:10483000A12C45E3442E42E0542EEE24FF24CC2448
:10484000DD240F900F900F900F90702E012F39E004
:10485000A32EB12CAC0EBD1E4E010894811C911CE0
:1048600082E994E00E94552D982F8D3031F08D30E3
:10487000DCF180538230C0F530C01830A1F5998149
:10488000892F8053823078F5913311F490E801C07C
:1048900090E08A81813309F4905C8B81813309F443
:1048A000905E8C81813309F4905F8D81813309F4AE
:1048B000985F8E81813309F49C5F8F81813309F485
:1048C0009E5F8885813309F49F5FF501EE0DFF1D22
:1048D00090830894E11CF11C06C0F401E10FF11D66
:1048E00090831F5F01C010E0F0E4EF16F104C9F4FB
:1048F0008FEA94E0B601A5010E9487040894C11CC8
:10490000D11C00D000D0EDB7FEB771820283548273
:1049100043820E94A12CEE24FF240F900F900F9051
:104920000F90FFEFCF16D10409F00CF499CFC85BBC
:10493000DF4F0FB6F894DEBF0FBECDBFCF91DF9132
:104940001F910F91FF90EF90DF90CF90BF90AF90AD
:104950009F908F907F905F904F900895BF92CF92DD
:10496000DF92EF92FF920F931F93DF93CF93CDB718
:10497000DEB72E970FB6F894DEBF0FBECDBF77E03F
:10498000E72EF12CEC0EFD1E63E0C62ED12CCC0ED2
:10499000DD1E53E0B52EE1C30E94A53460527E4473
:1049A00080409040C8F40E94A5346958734180400B
:1049B000904090F01A3011F01D3031F480911F06B4
:1049C0008F5F80931F0602C010921F0680911F0602
:1049D000833011F40E94D323812F65E175E00E949A
:1049E000F906882311F400E0B2C380911905909173
:1049F0001A05A0911B05B0911C058A3747EC940756
:104A000049EDA4074BE7B40709F493C38B3757EC80
:104A1000950759EDA5075BE7B50708F0B6C08434E4
:104A2000EBED9E07E0E7AE07EDE1BE0709F481C3B9
:104A30008534FBED9F07F0E7AF07FDE1BF0708F006
:104A400052C0823923EA92072CEEA20724E1B20772
:104A500009F4D3C1833933EA93073CEEA30734E169
:104A6000B307C8F486314AEA940747E3A4074BE04A
:104A7000B40709F4C2C184305AE9950757EDA50778
:104A80005EE0B50709F4B9C18E5F9B4CA74CB940F5
:104A900009F053C34EC38035FFED9F07FDEEAF070E
:104AA000F8E1BF0709F4FBC281352FED92072DEE27
:104AB000A20728E1B20738F488599C42AA41B641BE
:104AC00009F03BC3A3C18E3C48E4940747E5A40723
:104AD0004AE1B40709F4F1C184579B4EAA47BB4190
:104AE00009F02BC38AC1863AEEE09E07E2E1AE07E9
:104AF000E8E4BE0709F488C2873AFEE09F07F2E1C6
:104B0000AF07F8E4BF07C8F4863E25ED92072AED0B
:104B1000A20723E3B20709F4FDC0883F3CEA9307EC
:104B20003EEEA30734E3B30709F403C3825D924C5E
:104B3000A248BE4109F001C369C1823E55E595070F
:104B40005CE9A50756E6B50709F49BC2833EE5E597
:104B50009E07ECE9AE07E6E6BE0738F48855964BAB
:104B6000AD4FBA4409F0E9C271C28C3E29E3920705
:104B700026E7A2072BE6B20709F4DBC280569B4D5D
:104B8000AB43BE4609F0D9C238C1843A40E094072D
:104B90004BE9A4074AEBB40709F4CBC2853A50E0CD
:104BA00095075BE9A5075AEBB50708F052C08A36AE
:104BB000EEE29E07E2E6AE07E9E9BE0709F424C289
:104BC0008B36FEE29F07F2E6AF07F9E9BF07C8F4AC
:104BD00082352AEE920720E8A2072AE8B20709F4F4
:104BE0000CC18C3835E8930737EAA30738E9B307D7
:104BF00009F463C1865E964AA642BD4709F09DC28C
:104C00005CC18A3756EF950751EFA5075DE9B507F7
:104C100009F453C18B37E6EF9E07E1EFAE07EDE9EC
:104C2000BE0738F48E579241AA46BB4909F085C2A7
:104C3000E4C080322EE4920729EAA20721EBB207F2
:104C400009F41FC28A58974FA74CB84B09F075C298
:104C5000DDC0843649ED940740EEA40747EDB40764
:104C600009F458C0853659ED950750EEA50757ED64
:104C7000B50740F58C36E8E69E07E3E4AE07E2ECC4
:104C8000BE0709F4A6C18D36F8E69F07F3E4AF0727
:104C9000F2ECBF0738F48A5B9448A542BE4B09F09A
:104CA0004CC2EFC1803834E7930730E1A30734ECFE
:104CB000B30709F4ABC084559D42AF4FB54C09F022
:104CC0003CC29BC08E345DE595075EE3A50753EEBD
:104CD000B50709F492C08F34EDE59E07EEE3AE0709
:104CE000E3EEBE0738F4865B9342A34AB24E09F066
:104CF00024C2E3C0823920E7920726E8A2072BEFFF
:104D0000B20709F416C2825F9D4EA442BD4F09F05E
:104D100014C2C0C10E94A5346093D3047093D4041C
:104D20008093D5049093D604B092D20480912F053D
:104D300090913005A0913105B0913205F701808343
:104D40009183A283B3836F81788589859A850E9438
:104D500078377093D8046093D7048091330590918D
:104D60003405A0913505B0913605F7018083918314
:104D7000A283B3836F81788589859A850E9478376D
:104D80007093DA046093D9048091370590913805C7
:104D9000A0913905B0913A05F70180839183A283F0
:104DA000B3836F81788589859A850E9478378B01D6
:104DB0007093DC046093DB046091DD047091DE0489
:104DC0008091DF049091E00420E030E040E050E08A
:104DD0000E940937882379F4B801882777FD8095E8
:104DE000982F0E94AB376093E1047093E2048093A4
:104DF000E3049093E40401E0A1C180911F05809336
:104E0000E504809120058093E60497C180911F05F9
:104E100090912005A0912105B0912205F701808392
:104E20009183A283B3836F81788589859A8520E0F9
:104E300030E048EC52E40E94DE380E9478377093EC
:104E4000E8046093E704693C710520F01092E804DF
:104E50001092E7048091390590913A059093EA0405
:104E60008093E90480913B0590913C059093EC047C
:104E70008093EB0480913F05909140059093AA02A6
:104E80008093A90280914305909144059093AC02D0
:104E90008093AB0280914505909146059093AE02B8
:104EA0008093AD0280914705909148059A8389834C
:104EB0009093B0028093AF0240C160911F05709142
:104EC000200580912105909122050E94AB3720E8B2
:104ED00036E948E15BE40E9410376093DD0470938B
:104EE000DE048093DF049093E004609123057091C9
:104EF00024058091250590912605D6016C93119685
:104F00007C93119712968C93129713969C930E9400
:104F1000AB3720E836E948E15BE40E941037609344
:104F2000ED047093EE048093EF049093F00480916D
:104F300044058093F104809143058093F2048091AD
:104F40002F0590913005A0913105B0913205F70100
:104F500080839183A283B3838F819885A985BA8545
:104F60008093E1049093E204A093E304B093E404FB
:104F70008091270590912805A0912905B0912A05D7
:104F800080839183A283B3838F819885A985BA8515
:104F90008093F3049093F404A093F504B093F60483
:104FA0008091330590913405A0913505B091360577
:104FB00080839183A283B3838F819885A985BA85E5
:104FC0008093F7049093F804A093F904B093FA0443
:104FD000B4C08091270590912805A0912905B09132
:104FE0002A05F70180839183A283B3838F819885FB
:104FF000A985BA85B0588093FB049093FC04A093D4
:10500000FD04B093FE0499C080912305909124057E
:10501000A0912505B0912605F70180839183A28395
:10502000B3836F81788589859A850E947837882730
:1050300077FD8095982F0E94AB376093FF047093A3
:105040000005809301059093020577C080912705A4
:1050500090912805A0912905B0912A05F701808338
:105060009183A283B3836F81788589859A850E9415
:105070007837709561957F4F7093040560930305B1
:105080005CC080917F0580930505809180058093A9
:10509000060553C080911F05809307054EC080917F
:1050A0001F0590912005A0912105B0912205F701DF
:1050B00080839183A283B3838F819885A985BA85E4
:1050C0008093080590930905A0930A05B0930B05FA
:1050D0008091230590912405A0912505B091260586
:1050E00080839183A283B3838F819885A985BA85B4
:1050F00080930C0590930D05A0930E05B0930F05BA
:105100008091270590912805A0912905B0912A0545
:1051100080839183A283B3838F819885A985BA8583
:105120008093100590931105A0931205B093130579
:1051300004C080912B058093140500E08091160532
:10514000823229F485E195E063E20E94C9098EEB81
:1051500090E00E940C35002341F582E994E00E9422
:10516000252D1816190604F582E994E00E94552DA4
:10517000182F8091D204882309F02ECC0DCC1092E8
:10518000D20401E0802F90E02E960FB6F894DEBF97
:105190000FBECDBFCF91DF911F910F91FF90EF9088
:1051A000DF90CF90BF90089500E02091D30430911C
:1051B000D4044091D5045091D604205F384D4F4F10
:1051C0005F4F2B873C874D875E870E94A5342B85D8
:1051D0003C854D855E85261737074807590778F2C5
:1051E000D1CF6F927F928F929F92AF92BF92CF92C8
:1051F000DF92EF92FF920F931F93E0908706F0905B
:1052000088060091890610918A068FE590E0A0E05B
:10521000B0E0E80EF91E0A1F1B1F0E94A5346E1590
:105220007F058007910708F427C10E94A5343B0140
:105230004C01A0908706B0908806C0908906D09057
:105240008A060E94A534609387067093880680932F
:10525000890690938A0686E00E945435AA2797FD16
:10526000A095BA2FBC01CD010E94AB372DEC3CECD0
:105270004CE85FE30E94DE3820E030E040E85AE38B
:105280000E94DE387B018C0160915D0670915E06A4
:10529000882777FD8095982F0E94AB3720E030E07B
:1052A00048EC52E40E9410379B01AC01C801B701E1
:1052B0000E94DE382DEC3CEC4CE45EE30E94DE38CC
:1052C0007B018C016091B3027091B4028091B502B0
:1052D0009091B6022DEC3CEC4CE45FE30E94DE388A
:1052E0009B01AC01C801B7010E944336DC019B0160
:1052F000AC012093B3023093B4024093B5025093B3
:10530000B602CB018093370690933806A0933906F6
:10531000B0933A06809161069091620618161906BC
:105320000CF0AAC087E00E945435AA2797FDA095EB
:10533000BA2FBC01CD010E94AB372DEC3CEC4CE800
:105340005FE30E94DE3820E030E040E85AE30E944C
:10535000DE387B018C0160915F06709160068827C2
:1053600077FD8095982F0E94AB3720E030E44CE128
:1053700056EC0E9410379B01AC01C801B7010E9496
:1053800043367B018C01609161067091620688272B
:1053900077FD8095982F0E94AB3720E030E048ECF5
:1053A00052E40E9410379B01AC01C801B7010E9472
:1053B000DE382DEC3CEC4CE45EE30E94DE387B01F1
:1053C0008C0160918F06709190068091910690916A
:1053D00092062DEC3CEC4CE45FE30E94DE389B012E
:1053E000AC01C801B7010E9443367B018C01609378
:1053F0008F06709390068093910690939206B30166
:105400006A197B0980E090E00E94A9379B01AC01FA
:10541000C801B7010E94DE382FEA35EA41E959E3B5
:105420000E94DE3820918B0630918C0640918D06CB
:1054300050918E060E9443365B016C0160938B068F
:1054400070938C0680938D0690938E06C801B701E9
:1054500020E030E048EC52E40E94DE380E947837C9
:105460007093360660933506C601B5010E947D37FC
:1054700070933406609333061F910F91FF90EF9065
:10548000DF90CF90BF90AF909F908F907F906F9064
:10549000089583E00E94513508951F93CF93DF93C1
:1054A00085E090E06CE070E00E94981568EE73E093
:1054B00080E090E00E94B33482E994E00E94A22D43
:1054C000C0E0D0E010E0CE016DE171E00E94043A4E
:1054D000892BA9F41F5E8FEA94E0612F4CE00E94B3
:1054E00077048FEA94E00E944F058FEA94E06EEE15
:1054F0000E947F058FEA94E00E943305105161E01D
:1055000070E080E090E00E94B334219687E0C13DD6
:10551000D807C9F6DF91CF911F91089586E061E029
:105520000E94B53508950F931F9386E061E00E94B5
:10553000763502E914E0C80140E051EE60E070E029
:105540000E94C32C1093BC060093BB060E948E2AB7
:105550008FEA94E00E94D5050E94FD1D64EF71E082
:1055600080E090E00E94B33483EF93E00E94FC0A55
:10557000813011F00E94860C0E94480A10926C063D
:1055800007C00E941B1E80916C068F5F80936C0683
:1055900080916C068230A8F310926C060E944D2A0E
:1055A0000E94492A81EC94E064E67CE224E630E043
:1055B00040E050E000E00E9476338FEA94E00E94E1
:1055C0009C0581EC94E00E94DC331F910F910895BB
:1055D0002F923F924F925F926F927F928F929F9203
:1055E000AF92BF92CF92DF92EF92FF920F931F93F1
:1055F000DF93CF9300D000D0CDB7DEB7809168069F
:10560000882309F4E1C0E0909306F090940600919D
:10561000950610919606C801B7019F7725E33AEFEA
:105620004EE85CE30E94DE380E940D3769837A837E
:105630008B839C83C801B7012091DD043091DE0487
:105640004091DF045091E0040E9442361B012C017E
:105650009F7720EC3BE649ED57E40E94DE385B0182
:105660006C016091970670919806809199069091CF
:105670009A062091ED043091EE044091EF04509190
:10568000F0040E9442363B014C019F7720EC3BE640
:1056900049ED57E40E94DE3829813A814B815C81D3
:1056A0000E94DE387B018C01C601B501A60195017F
:1056B0000E94DE385B016C01C801B701A8019701A7
:1056C0000E94DE389B01AC01C601B5010E94433641
:1056D0000E9465390E94783760935506709356068C
:1056E000809357069093580660E070E080E89FE34F
:1056F00029813A814B815C810E9410379B01AC016A
:10570000C201B1010E94DE3897FA909497F8909404
:10571000A40193010E94B63620EE3EE245E652E433
:105720000E94DE3820E030E044EB52E40E94433631
:105730000E9478379B01AC0197FF04C028593E4F67
:105740004F4F5F4FCA01B901645B70408040904089
:1057500097FF06C0CA01B9016C547F4F8F4F9F4F0E
:105760000E94AB372091E1043091E2044091E304C0
:105770005091E4040E9442360E94783797FF04C09B
:1057800068597E4F8F4F9F4F0E94AB3720E030E02B
:1057900044EB53E40E94103720E030E040E851E44D
:1057A0000E94DE380E94413920E030E040E85FE3AB
:1057B0000E9443360E947D3760935406613108F49D
:1057C0006CC01092540669C08091F204823008F4D3
:1057D00064C08091F104853008F45FC0A0909B06FE
:1057E0008DE18A1508F459C0E090F304F090F404B8
:1057F0000091F5041091F60460919C0670919D064D
:1058000080919E0690919F06A80197010E944236C2
:105810009F7720E030E040E05FE30E94D338181625
:105820005CF410929B06E0929C06F0929D06009319
:105830009E0610939F0631C08A2D8F5F80939B0632
:105840008E3159F58091DD049091DE04A091DF0442
:10585000B091E0048093930690939406A0939506EC
:10586000B09396068091ED049091EE04A091EF0420
:10587000B091F0048093970690939806A0939906B0
:10588000B0939A06E092A006F092A1060093A206B9
:105890001093A30681E0809368060F900F900F90FD
:1058A0000F90CF91DF911F910F91FF90EF90DF90BC
:1058B000CF90BF90AF909F908F907F906F905F90B0
:1058C0004F903F902F9008950E94F1280E94560813
:1058D0000E94020B8FEA94E00E94E82A0E94CC1BEF
:1058E00008950E94AE24892B19F00E94642C08951B
:1058F00081EC94E00E94C43308956EBD0DB407FEA0
:10590000FDCF8EB508958DE061E00E9476358BE085
:1059100061E00E9476358CE060E00E9476358AE096
:1059200061E00E9476351CBC80E58CBD8DB58EB5DE
:10593000089588EA96E00E94832C08958FEF9FE7F0
:105940000895DF93CF93CDB7DEB7FE0139968D81F1
:105950009E8161E04F8158859F010E94422FCF9127
:10596000DF910895DF93CF93CDB7DEB7FE0139966F
:105970008D819E8160E04F8158859F010E94422F5A
:10598000CF91DF9108950F931F93DC01ED91FC916E
:105990000288F389E02D20E030E000E010E0099576
:1059A0001F910F9108958F92AF92CF92EF92FF9235
:1059B0000F931F93DF93CF93CDB7DEB7FC01138214
:1059C000128288EE93E0A0E0B0E084839583A68302
:1059D000B78382EF93E0918380835587448737872D
:1059E0002687118B008BF38AE28AC48AA58A868A6D
:1059F00070E0CB0123E0880F991F2A95E1F79C0105
:105A00002755394F308F278B8F54994F928F818F25
:105A100081E090E002C0880F991F6A95E2F720911B
:105A2000B906282B2093B906CF0140E051EE60E083
:105A300070E00E94C32CCF91DF911F910F91FF90D6
:105A4000EF90CF90AF908F900895FC01838D8823C5
:105A500019F42FEF3FEF0DC00788F08DE02D208166
:105A6000318182819381281B390B84819581282380
:105A70003923C9010895FC01838D882319F42FEF80
:105A80003FEF11C0018CF28DE02D208131818281A8
:105A90009381281B390B209530958481958128238B
:105AA00039232F5F3F4FC9010895FC01838D88235F
:105AB00061F0A789B08D2D913C91119712968D912F
:105AC0009C9113972817390721F44FEF5FEFCA0114
:105AD000089512968D919C9113971696ED91FC91D5
